:020000040002F8
:10300000385D00204D35020055350200573502006D
:10301000593502005B3502005D35020000000000FA
:103020000000000000000000000000005F3502000A
:1030300061350200000000006335020065350200C2
:10304000614202006735020045470200DD4202008E
:103050006735020067350200C13E02006735020095
:1030600067350200673502006735020067350200E8
:1030700067350200673502006735020067350200D8
:1030800067350200B9420200673502006735020069
:103090000D4402006735020011440200673502004A
:1030A00067350200673502006735020067350200A8
:1030B00067350200673502000000000000000000D4
:1030C0006735020067350200673502006735020088
:1030D0006735020067350200673502000000000016
:1030E00000000000000000000000000000000000E0
:1030F00000000000000000000000000000000000D0
:1031000000000000000000000000000000000000BF
:1031100000000000000000000000000000000000AF
:10312000000000000000000000000000000000009F
:10313000000000000000000000000000000000008F
:10314000000000000000000000000000000000007F
:10315000000000000000000000000000000000006F
:10316000000000000000000000000000000000005F
:10317000000000000000000000000000000000004F
:10318000000000000000000000000000000000003F
:10319000000000000000000000000000000000002F
:1031A000000000000000000000000000000000001F
:1031B000000000000000000000000000000000000F
:1031C00000000000000000000000000000000000FF
:1031D00000000000000000000000000000000000EF
:1031E00000000000000000000000000000000000DF
:1031F00000000000000000000000000000000000CF
:10320000DFF80CD000F0B0FD00480047698E0200E6
:10321000385D002030B4044654E8000F0D4644E801
:103220000053002BF8D1156030BC704730B4044611
:1032300054E8000F40EA010544E80053002BF7D1A1
:10324000156030BC704730B4044654E8000F00EA03
:10325000010544E80053002BF7D1156030BC7047DE
:1032600030B4044654E8000F80EA010544E80053F6
:10327000002BF7D1156030BC704730B4044654E8D9
:10328000000F00EB010544E80053002BF7D1156057
:1032900030BC704730B4044654E8000FA0EB010581
:1032A00044E80053002BF7D1156030BC7047000094
:1032B00030B450E8012F93B2C48923448489A342D7
:1032C00028BF1B1B0489A34202BFBFF32F8F00201E
:1032D00007E0C3EA020340E80134002CE9D14FF0D3
:1032E00001000A6030BC704750E8012FC2EA024278
:1032F00040E801210029F7D1704730B450E8022F8F
:103300001FFAA2F3C488A34202BFBFF32F8F00208D
:103310000DE0C48923448489A34228BF1B1BC2EA51
:10332000034340E80234002CE8D14FF001000A606A
:1033300030BC704750E8022FC2EA224240E8022126
:103340000029F7D17047034653E8022FD988B2EB22
:10335000324F4FF0000017BF92B241EA014142EAFA
:10336000014104E05A68B2EB324F08BF012043E844
:103370000212002AE8D1704730B4044654E8000F26
:103380000D4644E80053002BF8D1156030BC70475F
:1033900030B4044654E8000F40EA010544E8005305
:1033A000002BF7D1156030BC704730B4044654E8A8
:1033B000000F00EA010544E80053002BF7D1156027
:1033C00030BC704730B4044654E8000F80EA010571
:1033D00044E80053002BF7D1156030BC704730B47F
:1033E000044654E8000F00EB010544E80053002BAD
:1033F000F7D1156030BC704730B4044654E8000F74
:10340000A0EB010544E80053002BF7D1156030BC58
:103410007047000030B4044654E8000F0D4644E8FD
:103420000053002BF8D1156030BC704730B404460F
:1034300054E8000F40EA010544E80053002BF7D19F
:10344000156030BC704730B4044654E8000F00EA01
:10345000010544E80053002BF7D1156030BC7047DC
:1034600030B4044654E8000F80EA010544E80053F4
:10347000002BF7D1156030BC704730B4044654E8D7
:10348000000F00EB010544E80053002BF7D1156055
:1034900030BC704730B4044654E8000FA0EB01057F
:1034A00044E80053002BF7D1156030BC7047000092
:1034B00030B4044654E8000F0D4644E80053002B96
:1034C000F8D1156030BC704730B4044654E8000FA2
:1034D00040EA010544E80053002BF7D1156030BCE9
:1034E000704730B4044654E8000F00EA010544E890
:1034F0000053002BF7D1156030BC704730B4044640
:1035000054E8000F80EA010544E80053002BF7D18E
:10351000156030BC704730B4044654E8000F00EB2F
:10352000010544E80053002BF7D1156030BC70470B
:1035300030B4044654E8000FA0EB010544E8005302
:10354000002BF7D1156030BC70470000064880475B
:1035500006480047FEE7FEE7FEE7FEE7FEE7FEE778
:10356000FEE7FEE7FEE7FEE75D44020001320200EF
:103570002DE9F05F0546002092469B4688460646A8
:10358000814640241BE0284641464746224600F03B
:103590009AF953465A46C01A914110D3114618461B
:1035A000224600F081F92D1A67EB01084F462246AA
:1035B0000120002100F078F917EB00094E41201E90
:1035C000A4F10104DFDC484631462A464346BDE803
:1035D000F09F000000487047CCE5020010B5431A88
:1035E000934209D28318881803E010F8011D03F8EC
:1035F000011D521EF9D210BD40EA01039B0703D002
:1036000009E008C9121F08C0042AFAD203E011F821
:10361000013B00F8013B521EF9D210BDD2B201E0CD
:1036200000F8012B491EFBD270470022F6E710B5C7
:1036300013460A4604461946FFF7F0FF204610BD20
:10364000421C10F8011B0029FBD1801A704730B5CD
:1036500004460020034600E05B1C934203D2E05C7A
:10366000CD5C401BF8D030BDF0B480EA0102D40F2D
:103670004200B2EB410F02D20246084611464A0010
:1036800042D0C30DDDB2C1F3C752AD1A202D35DAD9
:10369000C1F3160141F4000204B15242C5F1200603
:1036A00002FA06F12A411044B3EBD05F23D0C4B133
:1036B000012DA0EBC35009DCF0BC4FF0004202EA40
:1036C000C352DBB200F5000000F016B9400000F173
:1036D000807000EBC350A0F1807040EAD1704900C7
:1036E00009E0490841EAC071A0EBC35000F50000B1
:1036F000400800EBC350F0BC00F0F5B86142012275
:1037000002EB4101001BF6E7F0BC704781F000417D
:10371000AAE780F00040A7E780EA010210B502F0B6
:103720000043400022D04A001FD0010E01EB12617D
:10373000C0F35600C2F3560240F4000042F4000207
:10374000A0FB022000047F39140400D0401C50EA82
:10375000124001D44000491EC2B20C0604EBD01046
:10376000401C4008802A02D003E0002010BD20F059
:103770000100002900DA0020184310BD30B480EAAF
:10378000010202F0004530F0004221F0004013D069
:1037900090B1C30DD40DC2F31601C0F31600E41AA4
:1037A00041F4000140F400027D34914201D3641CD5
:1037B00000E04900002C02DA30BC002070474FF4D2
:1037C00000000023914201D3891A034340084FEAC5
:1037D0004101F7D151B1914202D14FF0004105E0D2
:1037E00002D24FF0010101E06FF0010103EBC45080
:1037F000284430BC00F077B8C10F80EAE07008447C
:10380000CA079623002100F077B800F0004230F09C
:1038100000400AD0C10D01F56071C0F3160042EA04
:103820000151C2084007114370470020014670470C
:1038300001F0004330B421F0004150EA010206D00B
:103840000A0DA2F56072C1F31301002A02DC30BC3C
:1038500000207047440F44EAC104C100E01830BCA6
:1038600000EBC25000F03FB8002801DBC0F100407F
:10387000002901DBC1F100418842704730B50B4699
:10388000014600202022012409E021FA02F59D4290
:1038900005D303FA02F5491B04FA02F52844151E64
:1038A000A2F10102F1DC30BD202A04DB203A00FA4B
:1038B00002F1002070479140C2F1200320FA03F387
:1038C000194390407047202A04DB203A21FA02F085
:1038D0000021704721FA02F3D040C2F1200291404A
:1038E0000843194670470029A8BF7047401C49008B
:1038F00008BF20F00100704710B4B0FA80FC00FA55
:103900000CF050EA010404BF10BC704749B1CCF17F
:10391000200421FA04F411FA0CF118BF012121430B
:103920000843A3EB0C01CB1D4FEA00614FEA1020C6
:1039300042BF002010BC704700EBC3501044002968
:10394000A4BF10BC7047401C490008BF20F0010014
:1039500010BC70472DE9FE4F804681EA0300C00F7E
:103960000C46009021F0004123F00045B8EB020026
:10397000A94105D24046214690461C460B460246C8
:1039800023F00040104347D0270DC7F30A00C3F3CC
:103990000A510290401A019040286BDAC3F31300D9
:1039A00040F4801B0098924620B10023D2EB030A1A
:1039B00063EB0B0B01985946C0F140025046FFF7EC
:1039C00073FF06460D4650465946019A00F0DEF94F
:1039D00010EB08006141002487EA115284EAE77382
:1039E0001A4340D0009A62B3019A012A4FEA075263
:1039F00015DC001B61EB02014FF0004202EA0752A6
:103A0000CDE90042001C41F5801132462B4600F002
:103A1000DEF903B0BDE8F08F40462146F9E7001B10
:103A200061EB0201001C41F5801300185B41201876
:103A3000A2F5001747EB030140EAD570B6196D41B6
:103A400011E06D084FEA360645EAC0754FEA0752A5
:103A5000001B61EB0201001C41F5801149084FEA8F
:103A600030000019514132462B4603B0BDE8F04FFB
:103A700000F09EB90098012240000023D0EB020222
:103A800063EBE073009821464FEAE074B8EB000066
:103A900061EB0401E9E783F000435BE781F000415B
:103AA00058E72DE9FE4F81EA030404F0004421F0B9
:103AB000004100944FF0000B23F0004350EA010452
:103AC0005ED052EA03045BD0C3F30A54C1F30A5533
:103AD0002C44A4F2F3340194A0FB0254C1F313016B
:103AE00041F48011C3F3130343F4801301FB024438
:103AF00000FB034E840A970A44EA815447EA83573D
:103B0000A4FB076802958D0A05FB07854FEA932CF5
:103B100004FB0C542705029D4FEA065847EA163766
:103B2000B5EB08056EEB070C870E920E47EA81177E
:103B300042EA8312A7FB0201B6EB0B0164EB00041F
:103B40002B0D43EA0C335E1844EB1C50DA46514609
:103B5000E7FB0201C5F313044FEA0B3343EA1453A6
:103B60004FEA0432019C43EA0603A4F10C040294D8
:103B7000009CCDE900B400F02AF903B0BDE8F08F55
:103B800000200146F9E72DE9F04D81EA030404F035
:103B9000004B21F0004514464FF0000A23F000418D
:103BA00050EA050220D054EA01021DD0C5F30A579D
:103BB0000246C5F31303C1F31300C1F30A5640F4E0
:103BC000801543F48013A7EB0608101BD64608F2B5
:103BD000FD3873EB050002D308F1010801E09218EB
:103BE0005B41B8F1000F03DA00200146BDE8F08D1B
:103BF00000204FF48011064684460EE0171B73EB3D
:103C0000050705D3121B63EB050306434CEA010CC1
:103C100049084FEA300092185B4150EA0107EDD1A4
:103C200052EA030012D082EA040083EA0501084345
:103C300005D0101BAB4106D20122002306E0002272
:103C40004FF0004302E06FF0010253101AEB060040
:103C50004CEB085110EB0A0041EB0B01BDE8F04DB5
:103C600000F0A6B82DE9F04D00231A461B1A8A4130
:103C700003DB00200146BDE8F08DC1F30A52C1F319
:103C8000130141F480154FF0000BD10702D1001849
:103C90006D41521E0027044640F2FF11384601EBE9
:103CA000620A3E468046024600204FF48011FFF72C
:103CB0000AFEC2197141BB1846EB0100B4EB030CBC
:103CC00075EB000C04D3E41A65EB000517460E46AD
:103CD000241908F101006D4180463428E3DDF9190B
:103CE00046EB0600091BA84103D24FF0FF321346F2
:103CF00001E0002213461BEB070046EB0A51BDE82A
:103D0000F04D00F055B8C1F30A52C1F3130140F26F
:103D1000FF3341F480119A4202DA002001467047D5
:103D200040F233439A42A2F2334202DC5242FFF79E
:103D3000CABDFFF7B9BD000030B5041E71F1000423
:103D400004DB4FF00044404264EB0101141E73F1A8
:103D5000000405DB1C464FF00043524263EB0403B2
:103D6000994208BF904230BD064C074D06E0E0681E
:103D700040F0010394E8070098471034AC42F6D3B2
:103D8000FFF742FAA0EC0200C0EC0200202A06DB9A
:103D9000CB17203A41FA02F043EAE07306E041FA19
:103DA00002F3D040C2F12002914008431946704707
:103DB00010B5141E73F1000408DA401C41F1000133
:103DC00092185B411A4301D120F0010010BD2DE98A
:103DD000F04D92469B4611B1B1FA81F202E0B0FA81
:103DE00080F220329046FFF75FFD04460F4640EA1E
:103DF0000A0041EA0B0153465A46084313D01146C4
:103E000053EA010019D0C8F140025046FFF75BFDAC
:103E100005460E46504659464246FFF745FD0843C3
:103E200005D0012004E020463946BDE8F08D002091
:103E3000054346EAE0762C4337430A986305E40AD3
:103E4000A0EB08000022FD0A44EA47540A3002D5DC
:103E500000200146E9E7010510196941DDE908453F
:103E600000196941BDE8F04DA2E770B58C1810F853
:103E7000015B15F0070301D110F8013B2A1106D1AF
:103E800010F8012B03E010F8016B01F8016B5B1EC9
:103E9000F9D12B0705D40023521E0DD401F8013BA4
:103EA000FAE710F8013BCB1A921C03E013F8015B10
:103EB00001F8015B521EF9D5A142D8D3002070BD94
:103EC0002DE9F04700268CB0DFF86091B0464FF442
:103ED0008075012437460696284606F079F938B1F0
:103EE000D9F80403204203D0284606F067F9264398
:103EF0002D1D64007F1CADB2082FEDD34FF4BE74AE
:103F0000204606F065F948B1204606F057F946F01C
:103F1000004606AA0121002006F03CF9444D16F0A7
:103F2000FF0F15D00127002437420DD009EB840183
:103F3000D1F81005D1F81015C0F3042055F824204D
:103F4000C1F3014102B190477F00641C082CEBD300
:103F5000002E67DA4FF0FF30CDE9088000263446A6
:103F6000281910F8507F90F9000027F0C008401C75
:103F700044D009A9404605F031FA58B34FEA9719E1
:103F8000404602F081FF55F820701FB1B9F1030FD0
:103F900003D00FE0B9F1030F30D108A84FEAD802DF
:103FA00008F00703815C4FF0010C0CFA03FC41EAB6
:103FB0000C0181544FF0A04101EB8800D0F80007BC
:103FC00006A9C0F3014A404605F008FA18B1BAF153
:103FD000020F03D012E0BAF1030F0FD1B9F1030FB2
:103FE00008D1BAF1020F1BD00221404606F0AEF80C
:103FF000761CF6B217B149464046B847641C042CFB
:10400000AED3002E0ED06A460121002006F0C2F881
:1040100006990098884205D00690089809909DE777
:104020000321E2E70CB0BDE8F0870000006000402B
:10403000A0340020F8B56D4604466E1C29462820A1
:1040400000F034F8002827D03146292000F02EF85F
:10405000002821D0BDF80000208029462A2000F049
:1040600025F8002818D031462B2000F01FF8002832
:1040700012D0BDF80000608029462C2000F016F810
:10408000002809D031462D2000F010F8002803D078
:10409000BDF80000A0800120F8BD10B501460F203A
:1040A00000F004F8002800D0012010BD10B500F089
:1040B0005DF9012010BD38B5044669462020FFF7A0
:1040C000F5FF00280ED09DF8000004F0070100F075
:1040D000F80001438DF80010202000F08BF8002834
:1040E00000D0012038BD38B5044669462320FFF7CB
:1040F000DDFF00280ED09DF8000000F0CF0040EA60
:104100000410C1B28DF80010232000F073F80028CD
:1041100000D0012038BD00001CB5044669462020AF
:10412000FFF7C4FF002816D001A92320FFF7BEFF28
:10413000002810D09DF8001021480A0905D1027806
:1041400002F0F0020A438DF800202CB1012C18D0A7
:10415000022C09D000201CBD9DF80010017001F058
:104160000F008DF800001AE09DF8000000F0F70045
:104170008DF800009DF8040000F0F70040F0080002
:104180000BE09DF8000000F0F70040F008008DF80B
:1041900000009DF8040000F0F7008DF804009DF881
:1041A0000010202000F026F80028D4D09DF804103C
:1041B000232000F01FF80028CDD001201CBD0000F6
:1041C000E02A002038B5044669462020FFF76EFF3C
:1041D00000280ED09DF8000000F00F0040EA041007
:1041E000C1B28DF80010202000F004F8002800D0A3
:1041F000012038BD10B500F0E5F8012010BD00F039
:104200001F02012191404009800000F1E020C0F828
:104210008012704700F01F02012191404009800088
:1042200000F1E020C0F80011704700F01F020121EA
:1042300091404009800000F1E020C0F80012704772
:104240004907090E002806DA00F00F0000F1E0200F
:1042500080F8141D704700F1E02080F800147047CA
:104260002DE9F0414FF48077384605F075F90124C7
:10427000104EA50748B1384605F075F90120C5F87C
:1042800008037470002002F073FE4FF48277384602
:1042900005F062F900280BD0384605F064F90220D9
:1042A000C5F80803B470BDE8F041012002F060BE1B
:1042B000BDE8F0818C34002007480021C0F840118F
:1042C000C0F84411C0F84811C0F84C11C0F80011F2
:1042D000C0F8041109F05CBA00100140F8B51148AB
:1042E0000F4D04464FF48C7106F0E5FC002815D004
:1042F0000026C4F81861D4F818010090A87F2C4655
:10430000FF2801D005F033FF66772672D4E900213B
:1043100001B004F10800BDE8F0401047F8BD00000E
:1043200018350020003000401FB50E4B0FCB8DE834
:104330000F0018208DF8030019208DF802001A20B4
:104340008DF801001B208DF8000006480023064A66
:104350006946083805F0BAFA002801D000F0C2FF1B
:104360001FBD0000A0E102004DD4020038B5134C7F
:104370000D460021C4F80B10C4F80F10217040F056
:104380008001E01C0222017056214170A27062700F
:1043900000F1080301460A48009205F02BFB18B112
:1043A00000F0A0FF00E020BF20780028FBD00348E9
:1043B0000B3041782970407838BD0000E12A002098
:1043C00098E1020038B50F4C0023C4F80B30C4F854
:1043D0000F302370E21C107051700222A2706370C3
:1043E000009304F10B03E11C074805F003FB18B12F
:1043F00000F078FF00E020BF20780028FBD00120EB
:1044000038BD0000E12A002098E1020009F00EB951
:1044100006F0E6BB10B50B4A01210B4800F0F4FF93
:1044200008B100F05FFF084800224FF4A471006853
:1044300001F026F8002803D0BDE8104000F052BF7C
:1044400010BD00004D44020094E1020002484168A2
:10445000491C416070470000902A0020F0B5A9482F
:104460000023021D01780125101D4FF080540629FC
:104470000BD11678360708D10678C6F30316032E3B
:1044800006D0042E04D0052E02D0062907D00EE057
:10449000B4F824639C4FC6F304263E6002E016780D
:1044A000360704D10678C6F30316032E02D0062978
:1044B00004D00FE0964F954E7E670EE016783607D3
:1044C00008D10678C6F30316032E06D0042E04D0B6
:1044D000052E02D0062907D00EE0D4F844628D4F95
:1044E000C6F342363E6002E01678360704D10678FD
:1044F000C6F30316032E02D0062906D011E0864E1D
:10450000376827F0807737600EE01678360708D1D5
:104510000678C6F30316032E06D0042E04D0052E0B
:1045200002D006290AD011E04FF08046C6F80C31BF
:10453000C6F81031774E361F336002E01678360722
:1045400004D10678C6F30316032E02D0062905D03F
:104550000CE0704F032664373E600AE01678360799
:1045600004D10678C6F30316032E02D006290DD017
:1045700014E06A4F05263E60684E78363560674E17
:10458000083633603F263F1D3E6002E0167836074E
:1045900004D10678C6F30316052E02D0062957D09B
:1045A00062E05F4E36685F4F3E605D4E361D366896
:1045B0003F1D3E605A4E083636683F1D3E60584EDD
:1045C0000C3636683F1D3E60554E103636683F1D2E
:1045D0003E60534E143636683F1D3E60504E1836CE
:1045E0003668504F20373E604D4E1C3636683F1DB2
:1045F0003E604B4E203636683F1D3E60484E2436A6
:1046000036683F1D3E60464E283636683F1D3E6088
:10461000434E2C3636683F1D3E60414E303636687C
:10462000404F40373E603E4E343636683F1D3E6058
:104630003B4E383636683F1D3E60394E3C36366854
:104640003F1D3E60364E403636683F1D3E6002E0FC
:104650001678360708D10678C6F30316032E06D05F
:10466000042E04D0052E02D0062907D019E0D4F874
:1046700058122D4A01F04F01116002E0117809072C
:104680000FD10078C0F30310032803D0042801D011
:10469000052806D125480168C90702D06FF001013D
:1046A00001604FF01021D1F80002002803DBD1F89F
:1046B0000402002822DA1E4A15601E480468002CF5
:1046C000FCD01524C1F800420568002DFCD0C1F8CB
:1046D000044201680029FCD0136001680029FCD065
:1046E000BFF34F8F0C48F0380168134A01F4E061C2
:1046F00011430160BFF34F8F00BFFDE710490F4822
:104700000860F0BDE00F00F0403501400DF0ADBA9B
:1047100000C007403C050040FCED00E010560040A2
:104720000404001020C50040E40E004000040040D6
:1047300004E5014000E401400400FA050090D003C4
:104740008C2C00200448017F04480029024901D034
:1047500009F06BB909F0DAB8F83400200020004005
:104760000FB4084B10B504A902AA039800F002F98F
:10477000044602A9002000F094FC204610BC5DF81D
:1047800014FB0000A350020002E008C8121F08C179
:10479000002AFAD170477047002001E001C1121FC2
:1047A000002AFBD1704700000121202803DA814054
:1047B0000548014003E0402802DA2038814009B171
:1047C0000120704700207047FC06FFBD082806D274
:1047D00028B1012803D0042801D00120704700200F
:1047E000704700000149086070470000902C0020CD
:1047F0002DE9FF5F82B00021DDE90430020DDDF814
:1048000040B0034318D044F61050A2F2FF324243A6
:104810001514119801281FD0A5EB0B00401C5FEA6E
:10482000000A4FF000064E4FDFF83891B046504670
:1048300015D5CAF1000413E0119801244AA30128F8
:1048400001D16FEA0B010298119AC0E90031C0E969
:10485000024206B0BDE8F09FCBF10000DFE704465E
:104860000021404A491842EB0450CDE9001012E003
:10487000E00707D032463B4640464946FFF711F96C
:104880008046894632463B4610461946FFF709F9ED
:1048900006460F466410002CEAD1DDE90401DDE98B
:1048A0000023BAF1000F06DAFFF7FBF842464B4649
:1048B000FFF7F7F805E0FFF766F942464B46FFF7CA
:1048C00062F904460E460022284BFFF735FA03D85A
:1048D0004FF0FF30014607E00022254B20463146CD
:1048E000FFF738F8FFF70FFA102409E0002C0ADB75
:1048F0000A220023FEF73CFE039B30321A55641E49
:1049000050EA0102F2D1641C039AC4F11103144469
:10491000119A012A03D0012208430DD10AE008436D
:1049200004D000204FF0110B119072E7A3EB0B05A0
:104930006D1E0DE05B4504DD4FF0000205F1010541
:1049400004E003DA4FF00002A5F10105002AECD0E3
:1049500002981199C0E90231C0E9004579E70000E9
:10496000000014400000F03F300000000000F04361
:104970000000E03F2DE9FF4F95B09B468946064673
:1049800000250FE2252877D100242746F84A012187
:10499000059400E0044316F8013F203B01FA03F0C0
:1049A0001042F7D130782A2811D06FF02F033078D9
:1049B000A0F13002092A16D8059A44F0020402EB4D
:1049C000820203EB42021044761C0590EFE759F88F
:1049D000042B0592002A03DA504244F40054059057
:1049E00044F00204761C30782E2816D116F8010FF8
:1049F00044F004042A280DD06FF02F023078A0F183
:104A00003003092B09D807EB870302EB4303C718D0
:104A1000761CF3E759F8047B761C30786C280FD0AD
:104A200006DC4C2817D068280DD06A2814D104E081
:104A3000742810D07A280FD10DE044F400140AE055
:104A400044F4801401E044F440147278824202D1AC
:104A500004F58014761C761C307866280BD013DCA5
:104A6000582877D009DC002875D04528F6D046288C
:104A7000F4D047281AD19DE118E0632835D0642886
:104A800079D0652812D195E1702873D008DC6728A9
:104A9000F1D069286FD06E280DD06F2806D1B5E00F
:104AA00073282CD0752875D0782874D05A46179959
:104AB00090476D1C75E1C4F30250022809D0032809
:104AC0000DD0D9F8001004280DD00D6009F10409AB
:104AD00067E1D9F80010EA17C1E90052F6E7D9F802
:104AE00000100D80F2E70D70F0E719F8041B8DF847
:104AF000001000208DF80100EA46012003E059F87B
:104B000004AB4FF0FF3061074FF0000102D40DE01D
:104B100008F101018846B9420FDA8045F8DB1AF83E
:104B200008100029F4D108E008F10101884681420B
:104B3000FADB1AF808100029F6D105985B46A0EBBD
:104B4000080721463846179A00F094FA284400EBEB
:104B5000080507E04DE029E10DE01AF8010B5A467F
:104B600017999047B8F10108F7D25B4621463846BD
:104B7000179A13E142E00A220092C4F302524FF066
:104B8000000A022A08D059F804CB032A4FEAEC7134
:104B90000AD00DE029E02AE009F1070121F007021F
:104BA000F2E802C1914609E00FFA8CFC4FEAEC7181
:104BB000042A03D14FFA8CFC4FEAEC71002907DA82
:104BC0000A460021DCF1000C61EB02012D2202E01B
:104BD000220504D52B228DF80420012203E0E207F0
:104BE00001D02022F7E7904659E00A2102E0102286
:104BF0000DE010214FF0000A00910BE010224FF061
:104C0000000A44F004040827009203E008224FF051
:104C1000000A0092C4F30252022A05D059F804CBCC
:104C20000021032A08D009E009F1070121F0070259
:104C3000F2E802C1914605E01FFA8CFC042A01D17A
:104C40000CF0FF0C4FF00008220728D5702806D082
:104C5000009B83F0100353EA0A0305D00EE04022C4
:104C60008DF80420012208E05CEA010206D030221F
:104C70008DF804208DF8050002229046009B83F0F9
:104C8000080353EA0A030AD15CEA010201D1620770
:104C900005D530228DF804204FF001087F1E5828DA
:104CA00004D034A003900EA802900DE036A0F9E7DE
:104CB00053466046009AFEF75BFC84460398825C8C
:104CC0000298401E029002705CEA0100F0D1029846
:104CD00006A9081A00F1200A600702D524F48034DE
:104CE00000E00127574502DDA7EB0A0000E00020A5
:104CF00000EB0A01009005984144401A0590E0033A
:104D000006D45B462146179A059800F0B3F905448E
:104D1000002706E001A85A46C05D179990476D1C10
:104D20007F1C4745F6DBE0030CD55B462146179A0E
:104D3000059800F09FF9054404E030205A46179981
:104D400090476D1C0099481E00900029F5DC08E092
:104D5000029802995A460078491C02911799904787
:104D60006D1CBAF10001AAF1010AF1DC65E1000055
:104D70000928010030313233343536373839616231
:104D800063646566000000003031323334353637F5
:104D900038394142434445460000000000F058F9CC
:104DA0000544761C307800287FF4ECAD19B0284615
:104DB000BDE8F08F620700D4062709F1070222F050
:104DC000070CFCE80223E14603F000485FEA080C08
:104DD00002D00FF2702C0DE05FEA045C02D50FF2F6
:104DE000682C07E05FEAC47C02D00FF2602C01E07F
:104DF000AFF2700C4FF0FF3823F00043CDF850C0F5
:104E000065280CD006DC452809D046281DD0472847
:104E10003DD13DE0662818D067287ED138E00021DA
:104E2000112F01DB112000E0781CCDE9000106A95B
:104E30000EA8FFF7DDFCDDE90F010E9A03910021BA
:104E4000009207F1010A04914DE04FF000400097F5
:104E5000CDE9011006A90EA8FFF7CAFCDDE90F0293
:104E600003920E9B11990022DDF80CA0009304928E
:104E700011B9791C00EB010AB7EB0A0004D4C0F1A8
:104E8000FF3007F1010A0490AAEB0700019044E00B
:104E9000012F00DA01270021112F01DD112000E090
:104EA0003846CDE9000106A90EA8FFF7A1FCDDE90F
:104EB0000F010E9A0391002104910092BA46210736
:104EC0000CD40399514500DA8A46BAF1010F05DD89
:104ED000009AAAF10101515C302908D0B84202DAE7
:104EE00010F1040F06DA0121CDE9011015E0AAF155
:104EF0000101E9E7002805DC049901440491AAEBCB
:104F0000000102E0411C514500DD8A460499401A27
:104F1000401C01904FF000400290200704D40198FB
:104F2000504501DBCDF8048000208DF84F00029839
:104F30000DF14F07B0F1004F25D02B200E900298B5
:104F40004FF0020800280CDA404202902D200E900B
:104F500007E00A210298FEF791FC3031029007F831
:104F6000011DB8F10001A8F10108F2DC0298002847
:104F7000EFD1791E0E980870307800F0200040F0D4
:104F8000450007F8020D12A8C01B00F1070814988D
:104F9000007800B1012000EB0A01019801EBE071FB
:104FA00005984144401A401E0590E00306D45B4634
:104FB0002146179A059800F05DF80544149800788A
:104FC00018B15A46179990476D1CE00324D55B46EB
:104FD0002146179A059800F04DF805441CE0049806
:104FE000002807DBDDE90301884203DD0098405C0F
:104FF000179901E0179930205A469047049805F117
:105000000105401C04900198401E019004D12E20FF
:105010005A46179990476D1CBAF10001AAF1010A8E
:10502000DDDC05E017F8010B5A46179990476D1C17
:10503000B8F10001A8F10108F4DC5B462146179A9B
:105040000598ABE62D0000002B00000020000000BA
:105050002DE9F041044600251E461746880404D475
:1050600005E039462020B0476D1C641EF9D528465E
:10507000BDE8F0812DE9F041044600251E4690462A
:10508000C80301D5302700E02027880404D505E0B7
:1050900041463846B0476D1C641EF9D52846BDE828
:1050A000F0810A68531C0B601070704710B560B136
:1050B00059B102780B785208B2EB530F05D1062292
:1050C000401C491CFEF7C3FA08B1002010BD0120A6
:1050D00010BD800701D00020704701207047C368D1
:1050E0008B4206D811440069491E814201D8012033
:1050F00070470020704710B501220221002001F006
:10510000E5FC08B1072810D107220221012001F097
:10511000DDFC08B1072808D100210A22084601F069
:10512000D5FC08B1072800D1002010BD10B550B142
:105130000A480321008801EB004009A105F01CFA90
:1051400006F0A2FF03E00321094800F01BFE00283F
:1051500003D0BDE8104000F0C5B810BDFC2C002005
:10516000457261736520626F6E64732100000000F8
:10517000782F002070B58CB015460E4600236C4683
:10518000C3F10F01415CE1545B1C102BF8D30D21DE
:1051900004F11000FEF749FA0020C0F10F02315C63
:1051A0002244401C11740328F7D3684643DF0020D3
:1051B000C0F10F01214491F820102954401C03280C
:1051C000F6D30CB070BD022001F078BB014909791B
:1051D00000F08EBF502B002070B50024064D06E075
:1051E0006868012110F8340004F070FA641C287813
:1051F0008442F5D3002070BDB82B0020F8B51546C9
:105200000C460646052A01D20720F8BD04F044FBEF
:1052100018B904F013FB0028F7D1104900204E60A4
:105220000C70C1E902500E4D08610DE006EBC400A0
:105230006968009181788DF801100078094A694603
:1052400004F096FA0028E0D1641EE4B2EED2BDE884
:10525000F840054A0021024800F0D6B8B82B0020DB
:1052600000E30200397F02004972020005F03CFAB7
:1052700005F08AF80028FBD1104C0121208801EBB1
:1052800000400FA105F078F910480068C00700D071
:1052900000BE2088022101EB00400DA105F06CF951
:1052A000BFF34F8F0948E43801680D4A01F4E0610B
:1052B00011430160BFF34F8F00BFFDE7FC2C0020BE
:1052C000466174616C206572726F7200F0ED00E0EF
:1052D00053797374656D2072657365740000000006
:1052E0000400FA050EB500210091CDE901106A46CF
:1052F00044F20100FFF7BAFF0EBD00002DE9F84FA0
:10530000254C8146924660880E46814241D800274E
:105310004FF6FF788DF80070684600F005F92278A6
:105320006078A188884201DA401C00E00020C0B209
:10533000904204D19DF8000000F01AF927E065784A
:105340006078884201DA401C00E0002060709DF81F
:10535000000000F00DF9454519D0A068B9F1000F23
:1053600040F835A00DD066B16188E068324605FB93
:1053700001004946FEF732F9A06800EBC5008680BF
:1053800002E000EBC50087800020BDE8F88F042014
:10539000FBE70920F9E70000CC2B002010B50E4CEC
:1053A00003E0401C00E000202070207861788142FA
:1053B00010D022786188E068A36802FB010003EB4B
:1053C000C20153F83220898890472078A18888420A
:1053D000E9DAE6E710BD0000CC2B002030B5CB00A9
:1053E00008339DB293074FF0000401D0072030BD71
:1053F000044B9A602A44DA605C701C705880998073
:10540000002030BDCC2B0020074B9B7823B12AB164
:1054100020B10068037C1BB108207047072070474B
:1054200041744261002070475C35002070B507F080
:1054300055F9104800240B21047044700E4D817002
:1054400014206C602C706C70FEF7D9FE07211420BC
:10545000FEF7F6FE1420FEF7DDFE08480460072183
:105460001120FEF7EDFE0548001F0068A86000202F
:1054700070BD00005C350020DC2B002008150140C9
:105480002DE9FC47DFF8789099F8023073B368B3E0
:10549000052902D20720BDE8FC87436933B3437C6A
:1054A000012B25D0002704460025884616468DF896
:1054B0000050684600F038F801A808F0DDFBC8B1DC
:1054C000012101700F4944600968C0E90218C0E970
:1054D00004769DF8040089F801009DF8000000F0B2
:1054E00047F81420FEF7A1FE2846D4E70820D2E7AB
:1054F0000F46D8E704259DF8000000F039F8F3E7DF
:105500005C350020041501400649897839B130B175
:10551000416921B100210174022108F015B9082068
:10552000704700005C35002030B5EFF3108172B693
:105530000D4A9468012324B10370002900D162B69A
:1055400030BD93604FF0E023D3F88051074C2540E5
:105550001560C3F88041D3F8844154605A17C3F8EA
:10556000842100220270E8E768360020FC06FFBDB7
:105570000B498A68002A11D000280FD1EFF3108060
:1055800072B60B684FF0E022C2F800314B68C2F8E7
:10559000043100228A60002800D162B67047000002
:1055A0006836002010B5144C002240F28F2120688C
:1055B000FFF766FF08B1FFF795FE00224FF40041A8
:1055C0006068FFF75DFF08B1FFF78CFE002242F232
:1055D0006661A068FFF754FF08B1FFF783FE002261
:1055E0004FF42031E068FFF74BFF002803D0BDE8FF
:1055F0001040FFF777BE10BD84E102002DE9F041B5
:10560000064608680C46411C4FF0A0474FF00105C4
:1056100006D005FA00F1C7F80815206804F071FDFE
:105620006068411C02D0002104F062FD30792049FD
:1056300001EB4010A169007F00283068C0F82415F4
:1056400025D0607D227D31681043C1F86C05D4E916
:1056500000123068C0F80C15C0F8142524E0A068CA
:10566000411C02D0002104F043FDE068411C05D03C
:105670008540C7F80855E06804F043FDD4E90212FC
:105680003068C0F80825C0F81015BDE8F081607DCD
:10569000217D32680843C2F86C05D4E900123068F5
:1056A000C0F81425C0F80C15207D0128D7D0ECE7F0
:1056B000F83400202DE9F047074600888EB0804678
:1056C00000F0DAFC0646404602F08CFF82460446B3
:1056D0002E4800252A460178404600F01FFD002E86
:1056E00050D07879400734D501254FF6FF7603ABCB
:1056F0002A460721504605F00DFE010004D0404621
:1057000007F064FA00252BE0B1463146049802F018
:10571000BDFE064648450FD004460146404602F00D
:105720004BFF4046FFF752FD30B9404607F020FAE4
:105730004046FFF74BFD48B122460721504605F091
:105740007FFE010003D0404607F040FA00254E4599
:1057500006D0404606F00CF810B1504602F02EFF7D
:1057600002208DF81800ADF81A807879400701D52D
:10577000012000E002208DF820008DF8215006A8BD
:1057800001F01AFF0EB0BDE8F0870000502B00209A
:105790002DE9F04100250E4607462C4607E000BFE4
:1057A00057F824102846FDF75FFF0546641CB442F5
:1057B000F6DB13488068FEF71FF801462846FDF720
:1057C000DDFFB0F1824F02DB0E48BDE8F0810E49EB
:1057D0000144B1F5001F01D20C48F6E7A0F1814168
:1057E000B1F5C00F01D20A48EFE70A490844B0F505
:1057F000800F02D24FF08040E7E70748E5E700005E
:10580000902A00209A998940000020BF33335340EA
:10581000333313400000C0BF6666A63F2DE9F04356
:105820000546007D93B00E460024A0B107949DF874
:105830001C0020F00F00401C20F0F00010308DF80C
:105840001C00707B8DF81D009DF81E0020F00600E6
:10585000801C8DF81E001C216846FDF7E6FE9DF8B1
:10586000000040F002008DF80000297D11B140F0E9
:10587000100001E020F010008DF800000194039466
:105880000494287D00B107A8CDE9050401278DF80F
:10589000427042F61920ADF840000D94B07B8DF8AF
:1058A0003400F07B8DF835009DF83600142120F08F
:1058B0000600801C20F019008DF83600307B8DF832
:1058C000440008A8FDF7B1FE0DF140080DF13409C0
:1058D000ADF8287011A8CDE90889ADF82A40ADF8D7
:1058E0002C700C90A888AB1D08AA6946A2DF00287E
:1058F00038D1B06898B38DF8427042F60810ADF810
:1059000040000D94307C8DF834009DF8350020F077
:10591000FF008DF835009DF8360020F00600801C51
:1059200020F019008DF836000EA8B16800F066FF6F
:105930000646142108A8FDF778FEADF828600EA8E9
:10594000CDE90889ADF82A40ADF82C600C90E888C4
:1059500005F10E0208A9A3DF002803D101E0FFE74B
:10596000EC81002013B0BDE8F08300000448054A34
:105970008168491C816004210830FFF7BFBC00002A
:10598000582A0020018C02002DE9FC4700251788C9
:105990000646158090F82D001446894630B13A46E7
:1059A0002146484600F0D2FB050009D1B0784FF0FF
:1059B0000C0A18B32088C846001DB84202D95046C8
:1059C000BDE8FC87684679DF0028F9D120880321EB
:1059D00008F8001020881921401C80B2208008F8A7
:1059E00000102088401C80B2208000EB0801BDF828
:1059F000000008F092F8218808442080F078022204
:105A0000C8B1218896F9033001F1030C4846BC4522
:105A1000D5D8425421884FF0010C491C89B221800D
:105A200000F801C02188491C89B2218009F80130A1
:105A30002088401C20807068B8B1218890F900301F
:105A400001F1030C4846BC45B9D8425421880A22CA
:105A5000491C89B2218042542188491C89B2218085
:105A600009F801302088401C2080308950B1CDE9F0
:105A700000474B460622022106F1080008F014F9FF
:105A800005009DD1308A50B1CDE900474B46072231
:105A9000032106F1100008F007F9050090D1308BC2
:105AA00050B1CDE900474B461522142106F11800EC
:105AB00008F0FAF8050083D1306A30B13B4622463F
:105AC000494601F0BFFA0500DBD1706A30B13B46B0
:105AD0002246494603F0B8FA0500D2D196F82C00C8
:105AE00038B13B4622464946304607F06FF905007B
:105AF000C7D1307838B13B4622464946304603F09C
:105B00002BFB0500BDD128465AE7F0B50C4693B0F3
:105B10001F210726ADF80010ADF80410002750B182
:105B2000C17849070DD56A4602A9FFF72DFF002865
:105B300008D102AD02E00025ADF800706CB1E0784C
:105B400010B1304613B0F0BD01AA0AA92046FFF7F4
:105B50001BFF0028F6D10AAA02E00022ADF804706B
:105B6000BDF80400C3B2BDF80000C1B2284672DF20
:105B7000E8E780F82410704770B50D00044653D054
:105B8000F4B3012020700026E670202205F1780190
:105B9000201DFDF723FD84F82460D5F89800C4F893
:105BA000CC00D5F89C00C4F8D0004FF6FF70A4F8E4
:105BB000C800C4F82560A4F8296084F82B6004F1BB
:105BC00030003C210646FDF730FD287884F830008F
:105BD000A87884F83200E87884F83300687884F88C
:105BE0003100D5E90401C4E91001D5E90201C4E995
:105BF0000E01D5E90601C4E9120195F82D0000E077
:105C000012E084F85D00686AD8B104F1780104F10B
:105C10006C0061676065696A09880180686A616D06
:105C200080888880002008E00E2070BD696A2218F4
:105C30008968095C82F87810401C616D898881420E
:105C4000F4D8A86AE8B104F1A400C4F8A0000C38A4
:105C5000A065A96A89888180A86AA16D00880880EA
:105C6000002006E0A96A22188968095C82F8A4105D
:105C7000401CA16D89888142F4D895F82C0084F8E5
:105C80005C00286A48B104F1C4002065296A49888B
:105C90004180286A216D00880880686800B16063CF
:105CA00005F13C013046BDE87040FFF72EBF10B54E
:105CB0000288102A1AD0112A1FD01B2A1CD1007A60
:105CC0000C46002818D1E0780521401CB0FBF1F209
:105CD00001FB1201204600F055F800280CD0D4F842
:105CE000D010002908D0BDE810400847C27B012A27
:105CF00002D18088A1F8C80010BD0C46002184F8AC
:105D0000D4108088B4F8C8108842F5D120790028D2
:105D1000F2D10121DEE710B50C46022801D003289C
:105D200011D1607800280ED000206070E178204604
:105D300000F028F8002806D0D4F8D010002902D0AE
:105D4000BDE81040084710BD10B5044674DF0120BF
:105D500084F8D400002084F8D600062084F83300AC
:105D6000002104F13000FFF7D0FE002809D1E178CE
:105D7000204600F007F818B1D4F8D01001B18847D8
:105D8000002010BD2DE9FF47044600780F4638B1CA
:105D9000E770002004F092F8012628B16670D2E086
:105DA000082004B0BDE8F0870025C4F82550A4F809
:105DB000295084F82B50A07910B1E078012806D042
:105DC000E07970B1E078012801D0022809D1D4F837
:105DD000CC1021B184F82C600820884701E084F8B9
:105DE0002C5004F1260100200A5C0AB1304603E081
:105DF000401C0628F8D300204FF002084FF0030A99
:105E00004FF00409012F06D0022F09D0032F0CD028
:105E1000042F12D10DE0A17911B108B130460DE087
:105E2000E17911B108B1404608E0207A08B1504646
:105E300004E0607A08B1484600E02846E070D4F8F3
:105E4000CC1041B1032801D0042804D1607910B1ED
:105E500094F8D400A8B184F8D55000950295019526
:105E600003958DF800508DF80850E17804F1250075
:105E700004F13002052958D2DFE801F0670A131F48
:105E80003B0084F8D65084F8D56007208847E4E7C3
:105E9000A67001908DF80060ADF80C50ADF80A5076
:105EA00043E084F8028001908DF80060208AADF80C
:105EB0000C00A089ADF80A0037E0A08AADF80A000E
:105EC000208BADF80C00607980B194F8D40068B9EB
:105ED00094F8D60050B18DF8088084F833900021F2
:105EE0001046FFF712FE00BB05211AE084F802A05D
:105EF0001BE0A08BADF80A00208CADF80C00607997
:105F000088B194F8D40070B994F8D60058B18DF8DF
:105F1000088084F8339000211046FFF7F6FD20B981
:105F20000621A17001E084F80290E07830B194F885
:105F30002410684673DF00287FF433AFD4F8CC1008
:105F400009B1A078884700202BE7A570F6E738B59F
:105F50000D4604001BD0D5B1286820604FF6FF70B5
:105F6000608228792075FF20207401208DF80200BE
:105F700041F60F00ADF80000221D69460120A0DFA8
:105F8000002803D129462046FFF748FC38BD0E20E3
:105F900038BD38B5002922D0002820D00288102A28
:105FA00018D0112A18D0502A19D10C46097D002981
:105FB00015D030F8061F6289914210D1418902291B
:105FC0000DD1216800290AD00C3000F013FC38B143
:105FD000002006E0808801E04FF6FF70488238BD5F
:105FE00001208DF80000226869462046904738BDA0
:105FF00070B5040012D001461C221448FDF7EEFAD9
:106000001248134D0560206850B17ADF002806D190
:106010002068016829604068686005E00E2070BD56
:106020000B487BDF0028FAD108484FF6FF7114387F
:10603000084A20F8041B0549343901600021FFF7A4
:10604000E3F90028EBD0032070BD00005C31002094
:106050000C2B0020F9DB020002494A6C091D06F0F6
:1060600047BC00007831002002460248016D001D47
:1060700006F02BBC7831002070B50A4E054600248E
:106080002A46301D716C06F020FC40B12A46301DB6
:10609000F16C06F01AFC08B1022400E0012420464D
:1060A00070BD00007831002010B50024204607F0B4
:1060B000D7FD28B1641CE4B2182CF7D3182010BD0A
:1060C00003480122A240016811430160204610BD2F
:1060D0007831002010B5044607F0C2FD002803D037
:1060E000024800EB8400806D10BD00007831002074
:1060F00070B505460C46084607F0B2FD002809D0E9
:1061000005482A4600EB8401001D896DBDE87040FA
:1061100006F0DBBB70BD00007831002070B506468C
:1061200015460C46084607F09BFD00280AD0064895
:106130002B4600EB84013246BDE87040001D58310B
:1061400006F0FBBB70BD0000783100207CB5054631
:1061500008880C460930904201D90C207CBD684665
:106160006DDF0028FAD121880820685420881B217F
:10617000401C80B2208029542088401C80B220809E
:106180002844DDF801100160BDF8051081802088E9
:10619000801D80B220809DF80010490800D00121A8
:1061A00029542088401C208000207CBD7FB50446F7
:1061B00001208DF8060041F60A00ADF80400454ABA
:1061C00001A90120A0DF00287ED1228804F13C052E
:1061D00052B140482B46801C009042F6292061684D
:1061E00000F05AFE002873D1228952B139482B465B
:1061F0000A30009042F62420E16800F04DFE0028AD
:1062000066D1228A52B133482B461230009042F6B2
:106210002520616900F040FE002859D1228B52B13F
:106220002C482B461A30009042F62720E16900F0F6
:1062300033FE00284CD1228C52B126482B46223006
:10624000009042F62620616A00F026FE00283FD129
:10625000228D52B11F482B462A30009042F628204A
:10626000E16A00F019FE002832D1216B71B102A859
:1062700007F0BAF917482B4632300090082202A9DD
:1062800042F6232000F008FE002821D1606B58B1AF
:1062900010492B463A3100910279016842F62A20D2
:1062A00000F0FAFD002813D1A16B81B102A805F01E
:1062B00059FF08482B4642300090072202A942F6B7
:1062C000502000F0E9FD00E002E0002800D10020AD
:1062D00004B070BD6E2B002030B5018889B0044633
:1062E000212930D012DC324D01293AD03148032225
:1062F0001029008802EB004018D0112921D1227A00
:106300002DA104F03DF94FF6FF7019E03B2924D090
:1063100051292AD0562914D18088132176DF0028EC
:106320000FD009B0BDE83040FEF7DCBF29A104F072
:1063300023F9072000F0ECFB08B1FEF7D3FFA0889B
:10634000688009B030BD00200090A08869468FDFCA
:1063500029E000BFFEF7C6FFF3E78088132176DF50
:10636000DDE70021688866DFD9E71022A11D04A8B7
:10637000FDF734F99DF810100029E2D09DF81800BF
:10638000042803D0062801D00528DAD102290DD02F
:106390005FF001008DF800004FF4C170ADF804000B
:1063A000A0886946A8DF0028D4D1CAE70220F1E717
:1063B000582A0020FC2C0020446973636F6E6E65C0
:1063C000637465642C20726561736F6E2025642E82
:1063D00000000000436F6E6E65637465642E0000FC
:1063E00010B51A4C0188606810290ED011292BD1E4
:1063F000401E606028D1FEF77EFE002824D0216870
:10640000002921D0BDE810400847D0B90021012261
:10641000084600F05BFB08B107280FD107220221D4
:10642000012000F053FB08B1072807D10422022104
:10643000002000F04BFB20B1072802D0216801B1F9
:1064400088476068401C606010BD0000042B00207D
:106450002DE9F04701883B4E40F2F3194FF6FF75E6
:1064600010291BD011293ED0122954D0502946D1D1
:10647000C188F289841D914241D1618902293ED1AE
:106480008688304602F05CF9050038D004F10C0033
:1064900000F0B0F9A8B3294630464EE0C17B8788AA
:1064A000044601292BD1A846284602F049F90500E7
:1064B00017D02F8000202872234843464A4601689F
:1064C000C5F80A104068C5F80E0004F1100105F186
:1064D0000A0002F0D7F96872F08900280FD1294626
:1064E0002AE0042013E0808802F02AF9040006D094
:1064F0006068FFF709F808B106F04CFB2580BDE89D
:10650000F087FFE76868FEF7FFFF0028F7D0BDE8D7
:10651000F04706F03FBB87880646384602F010F980
:106520000400ECD02B464A4606F1080104F10A00AB
:1065300002F0A8F9607221463846BDE8F04700F045
:10654000C7BD00005C3100200C2B00202DE9F04776
:10655000044603883F480122A4B000F1480A102BEA
:1065600009D0112B54D01A2B70D1217AB2EB111F04
:1065700053D2012352E0D0E911218A430546011D7F
:1065800012A806F0B5F9442212A901A8FDF726F8D1
:10659000DFF8C0900026374609F144090DF10408E0
:1065A0000AE000BF08EB46001D2283884946281DEB
:1065B000009706F04FF9761C0198B042F2D8686C4B
:1065C000A688C04306F068F9A0F57F41FF3917D0CF
:1065D00005EB40000123868032465146281D06F017
:1065E000ACF9012332464946281D06F0A6F9E07BA6
:1065F00002280BD000231749A2884C31281D20E027
:1066000024B00420BDE8F047FEF76CBE0123F2E79A
:106610000023A2885146001D13E000230D490546C2
:10662000A2885031001D06F088F9207A0221B1EBD2
:10663000101F01D2012300E000230649A288543133
:10664000281D24B0BDE8F04706F077B924B0BDE8B6
:10665000F08700007831002010B504460748007824
:1066600000280AD0204601F097FE204606F0A8FC3C
:106670002046BDE8104001F039BB10BD402B002082
:1066800030B50446008CC3B0A0F57F42FF3A23D05A
:106690006A46204601F0F8FD0546ADF8F4000020FA
:1066A0003E903F90409041902189ADF8F810012133
:1066B000ADF8FC008DF8FA103DA84090CDF804D15B
:1066C000208C3EA9A6DF002804D1BDF8F410A94211
:1066D00000D00C2043B030BD0820FBE738B504469D
:1066E00008682060087960714FF6FF7020840020F0
:1066F00084F82200A4F84C00F42084F84E00012015
:106700008DF8020041F60D000D46ADF80000A21D07
:1067100069460120A0DF00280ED12946204601F05D
:1067200051FD002808D1A86828B12946204600F06C
:106730006BF8002800D1002038BD38B50288102A37
:1067400015D0112A15D0502A16D130F8062F8B8972
:106750009A4211D10C46418902290DD121680029A4
:106760000AD00C3000F046F838B1002006E08088EE
:1067700001E04FF6FF70088438BD01208DF800005D
:10678000226869462046904738BD028C4B889A4261
:1067900008D10A88A2F52063773B03D10979C91E85
:1067A00080F84E10704770B50446B0F84C000D46A6
:1067B00014280AD104F126012622881EFCF70EFFB8
:1067C000B4F84C00401EA4F84C00B4F84C0004EBA4
:1067D0004001401CA4F84C008D8470BD80F822104C
:1067E000704770B504460D460846FCF729FF208027
:1067F000656070BD007800F0010070470A78027093
:106800004978417002207047F0B58FB00D460646BA
:106810001C216846FCF709FF00249DF80000039442
:1068200040F002008DF80000012701948DF83670C9
:1068300042F63820049405940694ADF834000C9484
:10684000E87B8DF83000287C8DF831009DF832000F
:10685000142120F00600801C20F019008DF8320071
:1068600007A8FCF7E2FE0DA807900CA8ADF824706D
:106870000890ADF82640ADF82870A8680B90F08815
:1068800006F1100307AA6946A2DF0FB0F0BD0000B1
:106890000149085C70470000B4E102000649095C48
:1068A0004FF0A040D0F81005C84010F0010000D013
:1068B000012080F001007047B4E1020007490B5C41
:1068C0004FF0A041D1F804250120984020EA0203AE
:1068D000C1F808351040C1F80C057047B0E102005E
:1068E0000249085C012103F049BC0000B0E102004C
:1068F0000249085C002103F041BC0000B0E1020045
:106900000649095C4FF0A040D0F80405C84010F0DB
:10691000010000D0012080F001007047B0E10200CA
:106920007CB50024084E25460122305D00950023E9
:106930001146019503F08BFB641C042CF4D3BDE8D5
:106940007C4000F003B80000B0E1020010B5002464
:106950002046FFF7C5FF641C042CF9D310BD10B509
:1069600000242046FFF7C4FF641C042CF9D310BD9B
:1069700010B50246064B4FF0FF3000215C5C94429C
:1069800001D1084610BD491C0429F7D310BD0000F1
:10699000B4E1020070B50C4E0C004FF00005306001
:1069A0000BD0012000F06AF808B1022004E00020BA
:1069B00000F064F800B10B202070706810B9FEF789
:1069C0009AFB0546284670BD042B002010B5002018
:1069D00000F0D0F908B1062806D1012000F0CAF96C
:1069E00008B1062800D1002010BD00002DE9F047B5
:1069F0000D468146FFF7BCFF0446042836D2DFF877
:106A000074801B481C4EA8F10C0725B3012D0ED035
:106A1000022D2BD104EB440030444578002D25D0C5
:106A2000B968002922D02846BDE8F047084704EBA2
:106A30004401755C0E44717849B10E4A4FF400412F
:106A4000093A8068FEF71CFD08B987F80390B17811
:106A500008F80410E2E78068FEF756FD04EB4401F5
:106A6000314418F804008D78A842D7D0BDE8F087EB
:106A7000B8E10200002B0020FC300020FFF70EBF21
:106A80000146104810B54088042907D007290ED0C8
:106A90000A2915D1BDE8104006F07EBA132176DF31
:106AA0000CE000280CD0BDE81040FEF71BBCA0F5A0
:106AB0007F41FF3904D10448FFF746F90828F0D197
:106AC00010BD0000582A0020782F002070B5002348
:106AD000042810D20D4D00EB4004012A02D10129F7
:106AE0000CD00022094E00EB4000304461B1012976
:106AF00006D0022906D00723184670BD0E30C2B258
:106B00002A55F9E74270F7E78270F5E7FC3000207C
:106B1000044A014600201279D20702D0084600F04C
:106B20004DB87047F42A002070B506461E48002470
:106B3000C0E90161B00720D5002501221146284691
:106B4000FFF7C4FF6D1C0446042D02D2002CF4D0C4
:106B500013E094B940F2666204211448FEF74EFB3C
:106B600004000AD1FEF738FB040006D10F48104A92
:106B70000021001FFEF748FC0446F00701D0FFF794
:106B8000CFFE74B909480B4A00210C38FEF73CFCD3
:106B9000040006D10548084A01210838FEF734FCF4
:106BA0000446204670BD0000F42A0020C4E1020023
:106BB0001D6E020019890200C75102002DE9F05F25
:106BC0006A4C054600266078B34618B184F801B0D7
:106BD00001F08AFE664F4FF47A694FF4C87A4FF09D
:106BE0000108182D62D2DFE805F0AC0C0C31404DE5
:106BF00062676B746B74BE7D7D7D7D7DACAFB2B51D
:106C0000BEBE0020FFF77CFE00284FF0000008D039
:106C1000FFF766FE022D02D14FF4E16008E048461E
:106C200006E0FFF765FE022D01D1C82000E05046C6
:106C3000410CC0034FF4FA72801841F10001257035
:106C400052000023FCF794FC01462AE00020FFF7E5
:106C500057FE00284FF0000004D0FFF741FE4FF42C
:106C60004870E5E7FFF744FEDFE70020FFF748FE46
:106C700000284FF0000002D0FFF732FECFE7FFF709
:106C800037FED4E70020FFF73BFE00284FF000005E
:106C900002D0FFF725FE01E0FFF72AFE257041F63E
:106CA0009A1100223868FEF7EBFB064646E000200A
:106CB000FFF704FE257008E0002051E025703DE05C
:106CC00084F801800120FFF7F9FD002240F6CD4154
:106CD000E8E784F801800120FFF7F0FD00224FF47F
:106CE0008041DFE77868FEF70FFC0646D5F111001A
:106CF00000D02EB10220FFF7F3FD84F802B01DE0B2
:106D0000012816D980B2C8214843C117C90341EAF6
:106D10005041C0034FF4FA72801841F10001520053
:106D20000023FCF725FC014600227868FEF7A8FB4B
:106D300006460220FFF7DCFD84F802803046BDE8FD
:106D4000F09F01F0D1FDB9E701F0CEFDB4E701F00D
:106D5000CBFD04E001F0C8FD0020FFF7C9FD0120D4
:106D6000FFF7C6FDAAE7FFF7FAFDA7E7F42A002020
:106D7000B8E1020010B5FFF78BFD032103F0D5F950
:106D8000002010BDF8B5871C00208DF800000E46CD
:106D900001256846FEF7C8FB124C20683060D4E934
:106DA0000001401AA168091ABE1C06E002F012F8A0
:106DB000D4E90001401AA168091A491C8E42F5D88D
:106DC000A1682068084004EB8000C16841F003011D
:106DD000C1602068384420609DF80000FEF7C8FBC1
:106DE0002846F8BD1439002030B482680468531C6A
:106DF0008360A154D0E901128A4202D330BC02F070
:106E000034BF30BC70470000034803C8814201D141
:106E100001207047002070471439002000780221BB
:106E2000FFF7E4BD05494FF0FF32082841F8202064
:106E300002D3084480F8482070470000A0340020A6
:106E4000F0B54FF0FF3512B10023082601E008230A
:106E50000C260C4C05E000BF54F823707F1C04D0B6
:106E60005B1CB342F8D32846F0BD26185DB286F805
:106E7000305044F82310002AF5D1E11881F8480079
:106E8000F1E70000A03400200249084490F93000E6
:106E900070470000A03400202DE9F0438FB01E465B
:106EA000DDF8589015460F00804602D10020FEF70D
:106EB00019FA15B90020FEF715FA1C216846FCF7EF
:106EC000B4FB00249DF80000039440F002008DF80C
:106ED0000000012001948DF8360004940594069476
:106EE000ADF834800C9430788DF8300070788DF8DF
:106EF00031009DF83200142120F00600801C20F0A3
:106F000019008DF8320007A8FCF78FFB0DA8079039
:106F10000CA808900748ADF82450ADF82640ADF80D
:106F200028500B974B4607AA69460088A2DF0FB08E
:106F3000BDE8F0836E2B002070B504464FF6FF7558
:106F40000A462846AC4208D14FF4807421461046C8
:106F500004F064FFA04209D070BDFF2CFCD821468C
:106F6000104604F04EFF08B1204670BD284670BDA3
:106F700070B5084C050009D010342168002907D0ED
:106F800008682060496828468847F6E70834F4E72F
:106F900070BD00008C3400202DE9F05F2648416868
:106FA000F1B3DFF898B00E688146DBF800408768DF
:106FB0008078E11B21F07F45ED1CB0B9DFF88080BF
:106FC0004FF48030C8F84403C8F804031120FDF7DB
:106FD00016F91120FDF71EF94FF0010AC8F800A0BC
:106FE0002F2002F0C9FA89F802A0B54200D2354636
:106FF000124BE8193C3320F07F401860DBF800109A
:107000005A46091B21F07F41001B20F07F40C91C1C
:1070100081420FD9106818602F2002F0ADFA00E00D
:1070200004E0BDE8F05F1120FDF7FFB8BDE8F05FB8
:1070300005F054BBBDE8F09FDC2B00200415014097
:10704000001001402DE9F04117880646B81D14468E
:107050000D46984202D90C20BDE8F0813188072204
:1070600006290AD34FF4486C4FF6FF73614501D9E6
:10707000994202D17088062801D21046ECE760459B
:1070800001D99842F9D1994203D0984201D0814266
:10709000F3D80520E85520881221401C80B22080BA
:1070A00029542088401C80B220804119308806F085
:1070B00034FD2188084480B220804119708806F090
:1070C0002CFD2188084420800020C5E7FEF70AB97E
:1070D00038B54A7A0F4B62B100220A725969002909
:1070E00006D001228DF80020ADF8020068468847DE
:1070F00038BD0A7A62B19B684C6802461946204640
:10710000FEF7BEF90028F3D0BDE8384005F042BDD7
:107110005B68F1E75C310020F0B585B016460F469C
:1071200004461D4614220B496846FCF757FA0A48E4
:107130008DF80870ADF80240ADF80A608DF80C507B
:10714000017800222046FEF7E9FF684600F034FA95
:1071500005B0F0BDD0E20200502B00201448154AC3
:10716000C16881601268C260511AB1F5967F1CDC5B
:10717000024601685268092903DA01F10101016040
:10718000704706D14FF00A0102F10A02C0E900126D
:10719000704702F10102426007484FF00301008886
:1071A00001EB004005A103F0EBB90121E7E7000086
:1071B000D02A0020942A0020FC2C00206D436F75FB
:1071C0006E74203D202564007FB50C4610B101206F
:1071D00004B070BD2079002638B141F61D55012854
:1071E0001BD0022826D00F20F2E702202071029641
:1071F0000396E0680190694601A805F087F950B14F
:1072000002988188E18000882081BDF800100298F2
:1072100005F0FAF9DCE70A20DAE70A4B6A460021B2
:10722000A01D05F02FF938B1064918398E61CE61DD
:107230000A28CDD12846CBE702488188019805F07D
:10724000E3F9F5E7082C00202DE9F041002601259F
:10725000144C22E06068226900EBC607387805FA12
:1072600000F1114217D08A43226102F0DDFA024692
:107270003878E36805FA00F1194002FA00F3994200
:1072800009D17978012901D0012100E00021514084
:107290007A6802B19047761CF6B220788642D9D33C
:1072A000BDE8F081B82B002070B51C4C0546216B61
:1072B00011F0FF4F30D0284600F032F850B3206A6A
:1072C00060626168A162081AE16B88420BDBD4E955
:1072D0000601FCF71BFAA16BFCF7C6FA03D8A06AFB
:1072E0002062FFF73BFFD4E90910401AE16B8842A6
:1072F00010DBD4E90601FCF709FA616BFCF7B4FA7C
:1073000008D8A06A2062D4E90601FCF7FFF904F06E
:1073100005FAA063256370BD2563FBE7902A002072
:1073200070B5144C0D46217861702946FCF79CFA23
:1073300005D8012020702069401C206104E02069EC
:1073400060610020206120706178207831EA0002BD
:107350000AD06269022A07DB074A084B2A449A428C
:1073600002D20120A56170BD8843FCD00020E561F8
:1073700070BD0000902A00201E85D3BEEB51700026
:107380000E4910B50A784C780023A24212D0521C44
:10739000D2B20A70022A00D10B70084A0B780C3264
:1073A00052F8232002608868104420F07F408860F3
:1073B000012010BD0360002010BD0000DC2B002068
:1073C00013460A460021FFF7A7BE00002DE9F84347
:1073D000104D0F4680461E4691466946286801F0CA
:1073E00072FF040014D01C21FCF71FF9012020714A
:1073F000C4F81490380BC4F80080C4E902606946F0
:10740000286801F081FF04F0D9FF0020BDE8F8836F
:107410000420FBE730E3020010B503780022072BBD
:1074200006D2DFE803F005040610202930000A70B8
:1074300010BD01230B7003898B818388CB81C068C9
:1074400088600A7410BD02220A7002898A818288CB
:10745000CA81C2688A60807D062802D00020087434
:1074600010BD0120FBE703220A70C2888A810289CD
:10747000CA81C068886010BD04230B70C0888881F1
:10748000CA818A6010BD0520087010BD70B5064D18
:107490000646002455F8241009B130468847641C7C
:1074A000042CF7D370BD00008036002030B50446B0
:1074B000006885B00D46806800281CD014216846FD
:1074C000FCF7B3F80195A0680490207910B1012869
:1074D0000DD104E001208DF80000206904E00220B5
:1074E0008DF80000E0680003029060690390206856
:1074F00081686846884705B030BD70B586B01546CE
:107500000C00064619D0112C17D0082C15D01421C8
:107510006846FCF78AF8ADF80260304601F062F880
:10752000ADF804000D2C0AD0862C1CD007208DF855
:1075300000000294684600F04DF806B070BD0320CC
:107540008DF8000025B12878C00701D0012000E0A7
:1075500002208DF8080000208DF80C0041F2011087
:10756000ADF80A00E6E706208DF80000E2E700002B
:1075700010B50446408801F035F8A0800248016843
:107580002046BDE8104008471C2B00202DE9F041A3
:1075900007460024064E074D05E000BF56F82410AC
:1075A00038468847641CE8788442F7DBBDE8F08100
:1075B00040340020402B002010B50446408801F0E4
:1075C00011F8A080024801682046BDE81040084735
:1075D000A4E202000149096808470000F8E202003D
:1075E0007047000070B586B0044614216846FCF769
:1075F0001CF8A0890026A0F54040ADF804002078D2
:107600002D4D062835D2DFE800F0340303032E4E5B
:10761000A08900F0C7F9012130B9E08943F6FE7274
:10762000A0F54040904224D8A07B8DF80800207837
:10763000032810D05FF000008DF80900A0680390C7
:10764000606850B109208DF80000606804906846B9
:1076500003F03EFF0DE00120EEE708208DF800006A
:107660008DF81010F3E7A08900F09CF908B1E089CB
:1076700038B16878002802D06E7004F083F806B044
:1076800070BD606838B10B208DF800006E70AE7070
:1076900004F078F8DBE70A208DF80000BDF804005C
:1076A00004F000F9F2E713208DF800004FF6FF70A8
:1076B000ADF80400CBE700002C2B002038B50446C1
:1076C0000E480078A8B1A4F57F40FF380FD0684677
:1076D00004F0AEFD78B10521017001210171C48073
:1076E000684604F0B3FD04F059FE002038BD0420C4
:1076F00038BD022038BD082038BD0000102C002005
:107700000C4808B5007888B1684604F091FD78B15E
:1077100006210170684604F099FD0748017809B117
:107720000121017304F03AFE002008BD022008BDCB
:10773000082008BD102C002044370020F0B589B087
:1077400014216846FBF771FF2C4C207818B168466D
:10775000FFF79CFE50E0201D012105AAFBF766FD06
:10776000B8BB4FF0102041690004026940694B1C0E
:1077700001D100FB02F1224800220161A1F5405134
:10778000C160204902F091FB002820D11F481C2332
:107790008C221D49006801F083FD03F04DFC0500BB
:1077A00014D0022D12D000270126062D12D006A8D3
:1077B00004F03EFD88B106700C2D18D2DFE805F00C
:1077C000170F170F17161716171113110B2009B0E3
:1077D000F0BD11E026706760B9E70820F7E7077190
:1077E00005E0032100E00221017100E0067106A816
:1077F00004F02CFD04F0D2FD0020E8E7102C00205E
:10780000942C002040E302009036002008E30200A0
:1078100038B5040014D0694604F078FEA0B1BDF874
:10782000000000EB8001094800EB8100C16849B10C
:10783000A17A39B1C168491EC1600020A07238BD6B
:10784000052038BD062038BD0A2038BD1C37002071
:107850001FB501A9684604F015FE04B010BD07B5B8
:1078600013460A466946002004F00CFE0EBD07B51B
:1078700013460A460021684604F004FE0EBD20B1FE
:1078800019B10068086000207047052070470000AB
:107890007CB50D46040019D0C5B1694604F036FE2A
:1078A000B0B1BDF800000B4900EB800001EB800097
:1078B000012101AA0C306668FBF7DFFC2E606068CE
:1078C0000C3068600120A07200207CBD05207CBDCA
:1078D0000A207CBD1C37002018B10323002206F0CB
:1078E00029BB052070470223002206F023BB12B1FA
:1078F000022306F01FBB052070470000094908B5A8
:107900000A69042A0BD0084A096942F8210005488F
:10791000012110306A46FBF7B0FC002008BD0C20A6
:1079200008BD0000F02B00208036002038B504464A
:1079300009480D46007858B164B16946284606F0FA
:10794000F3FB002803D1BDF800102180658038BD0D
:10795000022038BD052038BD102C002010B504468B
:107960000E48007898B1A4B12188022913D80C4A96
:1079700001EB810002EB800260885289C31C9342B4
:1079800009D806F0C5FB00202080608010BD0220D1
:1079900010BD052010BD042010BD0000102C0020DB
:1079A0001C37002043F6FE71A0F54040884201D804
:1079B000012070470020704710B504460078182851
:1079C00002D1FEF771FB207010BD10B5044600789F
:1079D000182802D1FEF768FB207010BD70B5134661
:1079E000002206461546862902D0112902D002E05F
:1079F000012200E001250D4C73B1A179FEF78EFB49
:107A00002A4661793046FEF789FB0022A17830468C
:107A1000FEF784FB002203E0A178FEF77FFB2A46F5
:107A200061783046BDE87040FEF778BB582B0020E7
:107A3000406804F013BC00000EB517A19DF80800C3
:107A400020F00F00401C20F0F00010308DF80800EE
:107A50000A2202A87CDF08B1FDF744FC40F2413065
:107A600078DF08B1FDF73EFC0020009001904FF454
:107A7000A071ADF80400ADF800104FF4C8704FF4D9
:107A80000271ADF80600ADF8021068467ADF0028F2
:107A900001D0FDF727FC0EBD4E6F726469635F482D
:107AA000524D000010B508880C46A0F520617739CA
:107AB00009D108480321A3880088628801EB0040AF
:107AC00005A102F064FD2146BDE810400E48FEF716
:107AD0005CBE0000FC2C002047415454204154540B
:107AE000204D5455206F6E20636F6E6E6563746910
:107AF0006F6E2030782578206368616E676564203A
:107B0000746F2025642E0000FC2E002070B508B193
:107B1000012070BD194C0025207B08B1257301E0C0
:107B200000F0A0F82078082826D2DFE800F025042D
:107B3000080C10251420BDE8704000F021B8BDE805
:107B4000704000F07DB8BDE8704000F05FB8BDE85F
:107B5000704000F03BB86088084900EB800028398D
:107B600001EB80004068BDE8704003F045BA6560F5
:107B7000BDE8704003F04EBA0F2070BD44370020BE
:107B80001149F0B48A1C00200346A1F128050C1805
:107B9000A67A4EB1A37200EB800405EB8404E6687C
:107BA00016B9247C012C0AD0401C80B20228EED3E6
:107BB0000B704B804B60F0BC41F61D50704710803D
:107BC000F0BC00F03DB80000443700200C4841886C
:107BD00001EB8102A0F1280101EB8201CA6852B1D8
:107BE00005210170074802218180016800230122DC
:107BF000054802F033B9042202704968F6E7000034
:107C000044370020182C0020942C002038B50A4955
:107C1000084803240B684268898803EB8101538874
:107C20000470DB1C00201B0400909B0B034802F037
:107C3000DBF938BD44370020182C0020942C00209C
:107C4000074910B54888091D04F0B0FC18B1BDE81B
:107C50001040FFF7DBBFBDE81040FFF7B7BF0000E3
:107C600044370020F0B51F481F490125067802243B
:107C70008B88A0F12802082E19D2DFE806F004183C
:107C8000181B222F2F170189491C018100214180D7
:107C900080F80C1001EB810312F8233043B100236C
:107CA0004418491C89B2A3720229F3D30570F0BDB0
:107CB0000123F5E742685288D21C1A448A80047076
:107CC000F0BD46880D6806EB860602EB8602566814
:107CD0000E60556013818C80062100E00721017041
:107CE000F0BD000044370020182C002030B501887A
:107CF0008588224C85B0502924D0522902D054299D
:107D000032D103E0284601F00FF82DE014221C497F
:107D10006846FBF763FCADF80250284600F062FCB1
:107D2000ADF8040000F034F9002261792846FEF72E
:107D3000F5F9002221792846FEF7F0F96846FFF7A9
:107D400017FC11E0017B01290ED1817A01290BD1A9
:107D50000089A0F52451023906D10121284601F0FD
:107D600017F8A07803F03EFEE07803F03BFE2079A0
:107D700005B0BDE8304003F035BE0000142B0020F4
:107D800020E2020010B50446007800280FD1608878
:107D900000F0CAFF608800F0A3F9002807D004496A
:107DA000608801220979BDE81040FEF7B7B910BD1F
:107DB000142B002010B5124C00202070FEF774F92F
:107DC000A070FEF771F9E070FEF76EF92071FEF712
:107DD0006BF96071A17818290FD0E17818290CD0BF
:107DE0002179182909D0182807D00121601C04F036
:107DF00001F801202070002010BD032010BD0000FC
:107E0000142B00202DE9F04192B000F0D9F868461B
:107E1000FEF722F900246E460D4D4FF6FF780DE077
:107E200006EB4407B88800F0DDFB404504D1B88874
:107E300001222979FEF772F9641CA4B20098A042CD
:107E4000EED8287903F0CEFD12B0BDE8F081000035
:107E5000142B00207CB5044600781C4D08282FD137
:107E6000607A38BB207A4FF6FF7601280DD00728BC
:107E700002D0082824D11EE0A08800F0F1FAB04218
:107E80001ED0012100F084FF1AE0A0886A4601217B
:107E900003F016FA70B90198007858B1A08800F084
:107EA000DFFAB0420CD001222979FEF737F92879A0
:107EB00003F098FD04E005480021401C03F0D5FFC5
:107EC000A878BDE87C4003F08DBD0000142B002095
:107ED00010B504460A4841782046FEF709F968B112
:107EE0000848002101EB410200EB82025288A242C5
:107EF00001D1C8B210BD491C1429F3D3FF2010BD15
:107F0000262B00203032002070B5094D094E002488
:107F100004EB440005EB800071784088FEF7E8F838
:107F200020B1641C142CF3D3FF2070BDE0B270BDEF
:107F300030320020262B00202DE9F041124E07465A
:107F40000125BD403068FDF7DFFA00280DD10F4C48
:107F50002069284207D1384601F066FC0028E06815
:107F600005D0284304E0A8432061BDE8F081A84380
:107F7000E060206928432061A1683068BDE8F041D5
:107F80000022FDF77DBA000000E30200B82B0020BC
:107F90001CB5054AD2E90212CDE900120022694659
:107FA00003F0B3F91CBD000038E2020003484FF6AD
:107FB000FF7181800121017000207047202B00207B
:107FC00010B54FF6FF7003F033F903498880BDE820
:107FD000104004F093BE0000202B00202DE9FC414E
:107FE000804600F0FFFA002403250127A0F57F4119
:107FF0002646FF3908D06A46082103F061F918B90E
:108000000198841D8688056832462B4621464046E5
:10801000A9DF042804D0082804D00B2808D002E0E7
:10802000112000E00020002F00D10B20BDE8FC81D2
:108030000027A80701D50125E6E73443F5D0002441
:1080400026460325E0E72DE9FC41804600F0CAFA08
:108050000646A0F57F40FF380ED001252A466D1C4C
:108060000027ADB26B460821304603F053F90400F7
:1080700006D0072C25D025E043F20200BDE8FC81A4
:10808000019903230A1D0B604046891DAADF0400E5
:1080900004D00C2C09D0052C09D009E03246082167
:1080A000104603F0CDF904460CE0012700E000245F
:1080B0000821304603F0B0F900B10324002FCDD1E0
:1080C00000E00C242046D9E704488088A0F57F41D1
:1080D000FF3901D004F012BE70470000202B0020B1
:1080E0000EB502A9019100F07DFA6A46012103F064
:1080F000E7F808B100200EBD019800780EBD000021
:108100002DE9F04107464FF6FF760A48ABDF10B184
:108110000320BDE8F081074C43F20305A41E32465C
:1081200061883846A7DFA842F3D16088401C608090
:10813000F5E70000222B0020428800EB82020C327F
:108140008A4201D9022070478188A1F57F42FF3A17
:1081500003D0008808B10020704701207047884292
:1081600004D20068401C01D00120704700207047F5
:1081700010B51149114804F0A0FD104C81B2143C17
:108180006068401C60600E48FEF77AFA48B1082823
:1081900007D0132805D043F20141884201D0FDF7F2
:1081A000A1F860680321B0FBF1F201FB120000B1FD
:1081B0000120207010BD0000603000206C2A0020DB
:1081C000FC2E002070B5CCB00024054644949DF8E8
:1081D00010010E4620F00F00401C20F0F00010307F
:1081E0008DF81001087B8DF811019DF812011C21FA
:1081F00020F00600801C8DF812013DA8FBF715FA4F
:108200009DF8F4003E9440F010008DF8F40044A86E
:108210004094CDE9414001208DF82E0142F63720EF
:108220004394ADF82C014A94707B8DF82801B07B03
:108230008DF829019DF82A01142120F00600801CE8
:1082400020F0180040F001008DF82A0145A8FBF746
:10825000ECF94BA845904AA846906A46002128466A
:1082600000F012F8ADF81C01F420ADF81E41ADF895
:108270002001CDF824D1E88805F1080345AA3DA9DD
:10828000A2DF4CB070BD00002DE9F04104464079FA
:108290009046002500B1042594F8220008B145F06D
:1082A0000205CAB2FF2908D9090A88F8012045F059
:1082B000010588F80210032602E088F80120022652
:1082C000B4F84C0008B145F0100500271BE000BFD2
:1082D00094F84E10B21C91420BD2B4F84C0004EB4F
:1082E0004701C01B420004F124002431FBF776F95A
:1082F0000DE004EB470008EB0601808C0870000AD3
:108300004870D6B27F1CB4F84C00B842E0DC34F8B8
:108310004C0FC01B208088F800503046BDE8F0812B
:108320003EB5027802230C46B3EB520F17D1B0F8DA
:108330000110ADF80010C1788DF802108188ADF8F9
:10834000041080798DF8060002AA01A92046FCF7E6
:1083500011FF032202A96846FBF779F908B1002052
:108360003EBD01203EBD000010B50C46FFF7B0FD3C
:10837000FF280CD0074900EB400001EB800041686A
:1083800021600189A180807AA071002010BD0520A4
:1083900010BD00003032002070B5018892B0102965
:1083A00059D1011D34226846FBF718F99DF80400E5
:1083B0004FF6FF76032134466D46B1EB500F2AD0BD
:1083C00003F0F4F89DF8040040080ED001280CD00A
:1083D000022820D118E00F99281D1131FCF766FE04
:1083E00018B100BFBDF8344015E00EAA0DA9072052
:1083F00003F0B0F80028EED10DE00F99281D491CBC
:10840000FFF78EFF0028EDD10EAA0DA9072003F07B
:10841000A1F80028F1D1BDF80000291D00F0EAFE06
:10842000B44218D0BDF80000214600F0C5F8BDF8F0
:108430000000ADF836000020ADF83840074E8DF84A
:1084400034000DAD044600BF56F824102846884776
:10845000641C022CF8D312B070BD00004CE2020084
:10846000094A002101EB410332F82330834205D150
:1084700001EB410002EB800040887047491C142941
:10848000F0D34FF6FF707047303200203EB50C46F7
:10849000054603F08BF80BE0BDF80000A04207D0C2
:1084A0002846029900F02EF810B1BDF800003EBD3C
:1084B00001AA6946072003F04DF80028ECD14FF6D9
:1084C000FF703EBD10B50D4C18200D4A60700020A5
:1084D0004FF6FF7100EB400302EB8303401C598011
:1084E0001428F7D3FDF7E0FD6070182803D00120B1
:1084F0002070002010BD032010BD0000262B00209E
:10850000303200202DE9F0410C46054600F11107FC
:1085100001F111061022491C401CFBF798F848B9DC
:10852000681C00F0D1F928B1601C00F0CDF908B149
:10853000012400E0002431463846FCF7B7FD3B78C3
:108540000222B2EB530F0CD00321B1EB530F08D032
:108550003378B2EB530F04D0B1EB530F01D00121AC
:1085600000E00021084201D18C4302D00120BDE887
:10857000F0810020FBE7018811B9421892780AB116
:1085800001207047491C0829F7D30020704710B517
:108590000C460346FFF7EFFF00280AD01888218811
:1085A000884205D10822A11C981CFBF750F808B19D
:1085B000002010BD012010BD03F0C8B970B50446FD
:1085C000FFF74EFF0546204602F07DFE4FF6FF7195
:1085D00004468D4203D014B9284603F0B7F920466B
:1085E00070BD000010B5FFF773FCFF2805D00449EB
:1085F00000EB400031F8200010BD4FF6FF7010BDB9
:10860000303200203EB5044602F0D0FF0EE0019962
:1086100020464631FFF7BBFF28B9019920462A3191
:10862000FFF7B5FF10B1BDF808003EBD6A4602A9CC
:10863000072002F08FFF0028E9D14FF6FF703EBD02
:1086400038B504460A4801216A46FAF7A1FE68B91E
:108650000848606002F0D6FA05491C238C22087491
:1086600004488C39001F006800F01AFE002038BD55
:10867000F037002034E302002DE9F0412D4F0025B2
:1086800018B17D600120BDE8F0810879012258B160
:10869000294E01280CD0274C4FF00208083402283C
:1086A00021D0032842D128E00A7102F0B3FC3BE05C
:1086B0005FF0000000EB800116F82110022908D0BD
:1086C000401C80B20228F5D33A707D6041F61D50FF
:1086D000D9E700EB800006F8205006EB80004068E8
:1086E00002F08AFC20E00D71A4F80480002301222E
:1086F0001248216801F0B2FB16E00D71206802F00B
:108700007BFC0D4923682831498801EB810206EB87
:108710008201D1F804C0C4F800C04B60A3880B816B
:10872000A4F8048006F822500028ACD07D600E200A
:10873000A9E70000102C00201C370020942C0020FA
:108740000146034802888A4200D00020704700009A
:10875000483100202DE9FC5F0E008346DDE90C471F
:10876000C6F1000098469246814600D4084601258D
:1087700003E000BF90FBFAF06D1C5045FADAA84503
:1087800000D9454624B1002E01DB780700D5641ED0
:10879000B80702D5B8F1000F0AD0F80708D13CB1EC
:1087A000A54205D220215846641EFEF71DFBF6E7C0
:1087B000002E02DA4E462D2102E0780703D52B2148
:1087C0005846FEF711FB07F0030002280BD1B8F161
:1087D000000F08D13CB1A54205D230215846641E95
:1087E000FEF702FBF6E7CDE9004743465246314625
:1087F000584605F0A7F9BDE8FC9F000070B50E468D
:108800000446007918494FF4A27501EB4010017F2E
:108810002068A1B14FF4887102F08EFA4FF4907184
:10882000206802F089FA4FF49271206802F084FA0D
:108830002946206802F080FA0C49206809E04FF4CC
:108840008E7102F068FA2946206802F064FA08493D
:108850002068C0F80413206800F035FF3146BDE8F9
:10886000704000F014BF0000F83400201003020034
:10887000800002000248007A002800D001207047E2
:10888000F0370020F0B58488A518944200D822461D
:10889000A41AC288D6189A4200D81346D21A4B8816
:1088A0000788BB420CD34088834209D88888A042FD
:1088B00006D3A84204D8C888904201D3B04201D957
:1088C0000020F0BD0120F0BD0021425C0AB1012072
:1088D0007047491C1029F8D300207047800701D049
:1088E00000207047012070470A4810B5807860B1B9
:1088F000002401E0022C06D02046FDF7F1FF641CA5
:10890000042CF7D310BD0324F6E7BDE81040FEF7B2
:108910001DB80000F42A002003480179C90702D0DD
:108920000078FEF74BB97047F42A00200649012071
:10893000086006480168C1F300410029FAD10449E2
:1089400000208870704700000C00004018040040B0
:108950008C340020F7210180172141800021017112
:108960004171FB2181711B21C17170472DE9FE4FBF
:108970002A4D984691460F00824601D000260DE010
:10898000684600F063FC6A460021504602F007FC8E
:108990002878009E10B99DF8090098B14A463146E2
:1089A000504604F059FC0446014600225046FFF7A9
:1089B00015F8112C1AD008DC74B3082C2CD00D2C0F
:1089C00009D129E00520BDE8FE8F862C1AD0A4F538
:1089D0004050023820D00325B8F1000F04D03246B1
:1089E00021465046FEF789FD2846ECE73A462979AC
:1089F0005046FDF793FB4A46E9785046FDF78EFB5B
:108A00000025E9E73A4629795046FDF787FB4A46B3
:108A1000E9785046FDF782FB2546DDE7582B00201C
:108A20002DE9F041204F0E46154604463978FDF7F2
:108A30005FFB002835D0204602F08CFB50B3204667
:108A4000FFF7D0FD80462046B978FDF751FB08B10D
:108A5000012700E00227204602F08AFE0028404657
:108A600002D0FFF7ABFD0DE0A8F57F41FF3909D03B
:108A7000072102F0D1FC010004D0052902D02046D4
:108A800004F0A4F82B46324639462046BDE8F041B2
:108A9000FEF742BB2A4631462046BDE8F041FEF7CC
:108AA0008FBCBDE8F0810000502B00202DE9F04381
:108AB00091B08146FDF70EFB002820D06846FDF7F7
:108AC000CBFA00246E4617E006EB44054946A88819
:108AD000FDF70EFB78B10B4FA888F978FDF708FB7E
